{
	"data": {
		"bytecode": {
			"linkReferences": {},
			"object": "608060405234801561001057600080fd5b50610bab806100206000396000f3fe608060405234801561001057600080fd5b50600436106100365760003560e01c806312b115cf1461003b578063d946e93514610057575b600080fd5b610055600480360381019061005091906105b2565b610087565b005b610071600480360381019061006c9190610665565b6101b9565b60405161007e9190610833565b60405180910390f35b60018560405161009791906107fc565b90815260200160405180910390206040518060c00160405280878152602001868152602001670de0b6b3a7640000866100d091906108e3565b81526020014281526020018481526020016100ea8461038f565b60048111156100fc576100fb610a40565b5b81525090806001815401808255809150506001900390600052602060002090600602016000909190919091506000820151816000019080519060200190610144929190610442565b506020820151816001019080519060200190610161929190610442565b5060408201518160020155606082015181600301556080820151816004015560a08201518160050160006101000a81548160ff021916908360048111156101ab576101aa610a40565b5b021790555050505050505050565b6101c16104c8565b6001836040516101d191906107fc565b908152602001604051809103902082815481106101f1576101f0610a9e565b5b90600052602060002090600602016040518060c001604052908160008201805461021a906109ae565b80601f0160208091040260200160405190810160405280929190818152602001828054610246906109ae565b80156102935780601f1061026857610100808354040283529160200191610293565b820191906000526020600020905b81548152906001019060200180831161027657829003601f168201915b505050505081526020016001820180546102ac906109ae565b80601f01602080910402602001604051908101604052809291908181526020018280546102d8906109ae565b80156103255780601f106102fa57610100808354040283529160200191610325565b820191906000526020600020905b81548152906001019060200180831161030857829003601f168201915b505050505081526020016002820154815260200160038201548152602001600482015481526020016005820160009054906101000a900460ff16600481111561037157610370610a40565b5b600481111561038357610382610a40565b5b81525050905092915050565b6000600482111580156103a3575060008210155b6103e2576040517f08c379a00000000000000000000000000000000000000000000000000000000081526004016103d990610813565b60405180910390fd5b60008214156103f4576000905061043d565b6001821415610406576001905061043d565b6002821415610418576002905061043d565b600382141561042a576003905061043d565b600482141561043c576004905061043d565b5b919050565b82805461044e906109ae565b90600052602060002090601f01602090048101928261047057600085556104b7565b82601f1061048957805160ff19168380011785556104b7565b828001600101855582156104b7579182015b828111156104b657825182559160200191906001019061049b565b5b5090506104c49190610510565b5090565b6040518060c0016040528060608152602001606081526020016000815260200160008152602001600081526020016000600481111561050a57610509610a40565b5b81525090565b5b80821115610529576000816000905550600101610511565b5090565b600061054061053b8461087a565b610855565b90508281526020810184848401111561055c5761055b610b01565b5b61056784828561096c565b509392505050565b600082601f83011261058457610583610afc565b5b813561059484826020860161052d565b91505092915050565b6000813590506105ac81610b5e565b92915050565b600080600080600060a086880312156105ce576105cd610b0b565b5b600086013567ffffffffffffffff8111156105ec576105eb610b06565b5b6105f88882890161056f565b955050602086013567ffffffffffffffff81111561061957610618610b06565b5b6106258882890161056f565b94505060406106368882890161059d565b93505060606106478882890161059d565b92505060806106588882890161059d565b9150509295509295909350565b6000806040838503121561067c5761067b610b0b565b5b600083013567ffffffffffffffff81111561069a57610699610b06565b5b6106a68582860161056f565b92505060206106b78582860161059d565b9150509250929050565b6106ca8161095a565b82525050565b60006106db826108ab565b6106e581856108b6565b93506106f581856020860161097b565b6106fe81610b10565b840191505092915050565b6000610714826108ab565b61071e81856108d8565b935061072e81856020860161097b565b80840191505092915050565b60006107476016836108c7565b915061075282610b21565b602082019050919050565b600060c083016000830151848203600086015261077a82826106d0565b9150506020830151848203602086015261079482826106d0565b91505060408301516107a960408601826107ed565b5060608301516107bc60608601826107ed565b5060808301516107cf60808601826107ed565b5060a08301516107e260a08601826106c1565b508091505092915050565b6107f681610950565b82525050565b60006108088284610709565b915081905092915050565b6000602082019050818103600083015261082c8161073a565b9050919050565b6000602082019050818103600083015261084d818461075d565b905092915050565b600061085f610870565b905061086b82826109e0565b919050565b6000604051905090565b600067ffffffffffffffff82111561089557610894610acd565b5b61089e82610b10565b9050602081019050919050565b600081519050919050565b600082825260208201905092915050565b600082825260208201905092915050565b600081905092915050565b60006108ee82610950565b91506108f983610950565b9250817fffffffffffffffffffffffffffffffffffffffffffffffffffffffffffffffff048311821515161561093257610931610a11565b5b828202905092915050565b600081905061094b82610b4a565b919050565b6000819050919050565b60006109658261093d565b9050919050565b82818337600083830152505050565b60005b8381101561099957808201518184015260208101905061097e565b838111156109a8576000848401525b50505050565b600060028204905060018216806109c657607f821691505b602082108114156109da576109d9610a6f565b5b50919050565b6109e982610b10565b810181811067ffffffffffffffff82111715610a0857610a07610acd565b5b80604052505050565b7f4e487b7100000000000000000000000000000000000000000000000000000000600052601160045260246000fd5b7f4e487b7100000000000000000000000000000000000000000000000000000000600052602160045260246000fd5b7f4e487b7100000000000000000000000000000000000000000000000000000000600052602260045260246000fd5b7f4e487b7100000000000000000000000000000000000000000000000000000000600052603260045260246000fd5b7f4e487b7100000000000000000000000000000000000000000000000000000000600052604160045260246000fd5b600080fd5b600080fd5b600080fd5b600080fd5b6000601f19601f8301169050919050565b7f496e76616c696420696e766f6963652073746174757300000000000000000000600082015250565b60058110610b5b57610b5a610a40565b5b50565b610b6781610950565b8114610b7257600080fd5b5056fea264697066735822122063a526299d3a4e0fe9f0be71f2130ab8b4d443ae105a013365227a53702ad24064736f6c63430008060033",
			"opcodes": "PUSH1 0x80 PUSH1 0x40 MSTORE CALLVALUE DUP1 ISZERO PUSH2 0x10 JUMPI PUSH1 0x0 DUP1 REVERT JUMPDEST POP PUSH2 0xBAB DUP1 PUSH2 0x20 PUSH1 0x0 CODECOPY PUSH1 0x0 RETURN INVALID PUSH1 0x80 PUSH1 0x40 MSTORE CALLVALUE DUP1 ISZERO PUSH2 0x10 JUMPI PUSH1 0x0 DUP1 REVERT JUMPDEST POP PUSH1 0x4 CALLDATASIZE LT PUSH2 0x36 JUMPI PUSH1 0x0 CALLDATALOAD PUSH1 0xE0 SHR DUP1 PUSH4 0x12B115CF EQ PUSH2 0x3B JUMPI DUP1 PUSH4 0xD946E935 EQ PUSH2 0x57 JUMPI JUMPDEST PUSH1 0x0 DUP1 REVERT JUMPDEST PUSH2 0x55 PUSH1 0x4 DUP1 CALLDATASIZE SUB DUP2 ADD SWAP1 PUSH2 0x50 SWAP2 SWAP1 PUSH2 0x5B2 JUMP JUMPDEST PUSH2 0x87 JUMP JUMPDEST STOP JUMPDEST PUSH2 0x71 PUSH1 0x4 DUP1 CALLDATASIZE SUB DUP2 ADD SWAP1 PUSH2 0x6C SWAP2 SWAP1 PUSH2 0x665 JUMP JUMPDEST PUSH2 0x1B9 JUMP JUMPDEST PUSH1 0x40 MLOAD PUSH2 0x7E SWAP2 SWAP1 PUSH2 0x833 JUMP JUMPDEST PUSH1 0x40 MLOAD DUP1 SWAP2 SUB SWAP1 RETURN JUMPDEST PUSH1 0x1 DUP6 PUSH1 0x40 MLOAD PUSH2 0x97 SWAP2 SWAP1 PUSH2 0x7FC JUMP JUMPDEST SWAP1 DUP2 MSTORE PUSH1 0x20 ADD PUSH1 0x40 MLOAD DUP1 SWAP2 SUB SWAP1 KECCAK256 PUSH1 0x40 MLOAD DUP1 PUSH1 0xC0 ADD PUSH1 0x40 MSTORE DUP1 DUP8 DUP2 MSTORE PUSH1 0x20 ADD DUP7 DUP2 MSTORE PUSH1 0x20 ADD PUSH8 0xDE0B6B3A7640000 DUP7 PUSH2 0xD0 SWAP2 SWAP1 PUSH2 0x8E3 JUMP JUMPDEST DUP2 MSTORE PUSH1 0x20 ADD TIMESTAMP DUP2 MSTORE PUSH1 0x20 ADD DUP5 DUP2 MSTORE PUSH1 0x20 ADD PUSH2 0xEA DUP5 PUSH2 0x38F JUMP JUMPDEST PUSH1 0x4 DUP2 GT ISZERO PUSH2 0xFC JUMPI PUSH2 0xFB PUSH2 0xA40 JUMP JUMPDEST JUMPDEST DUP2 MSTORE POP SWAP1 DUP1 PUSH1 0x1 DUP2 SLOAD ADD DUP1 DUP3 SSTORE DUP1 SWAP2 POP POP PUSH1 0x1 SWAP1 SUB SWAP1 PUSH1 0x0 MSTORE PUSH1 0x20 PUSH1 0x0 KECCAK256 SWAP1 PUSH1 0x6 MUL ADD PUSH1 0x0 SWAP1 SWAP2 SWAP1 SWAP2 SWAP1 SWAP2 POP PUSH1 0x0 DUP3 ADD MLOAD DUP2 PUSH1 0x0 ADD SWAP1 DUP1 MLOAD SWAP1 PUSH1 0x20 ADD SWAP1 PUSH2 0x144 SWAP3 SWAP2 SWAP1 PUSH2 0x442 JUMP JUMPDEST POP PUSH1 0x20 DUP3 ADD MLOAD DUP2 PUSH1 0x1 ADD SWAP1 DUP1 MLOAD SWAP1 PUSH1 0x20 ADD SWAP1 PUSH2 0x161 SWAP3 SWAP2 SWAP1 PUSH2 0x442 JUMP JUMPDEST POP PUSH1 0x40 DUP3 ADD MLOAD DUP2 PUSH1 0x2 ADD SSTORE PUSH1 0x60 DUP3 ADD MLOAD DUP2 PUSH1 0x3 ADD SSTORE PUSH1 0x80 DUP3 ADD MLOAD DUP2 PUSH1 0x4 ADD SSTORE PUSH1 0xA0 DUP3 ADD MLOAD DUP2 PUSH1 0x5 ADD PUSH1 0x0 PUSH2 0x100 EXP DUP2 SLOAD DUP2 PUSH1 0xFF MUL NOT AND SWAP1 DUP4 PUSH1 0x4 DUP2 GT ISZERO PUSH2 0x1AB JUMPI PUSH2 0x1AA PUSH2 0xA40 JUMP JUMPDEST JUMPDEST MUL OR SWAP1 SSTORE POP POP POP POP POP POP POP POP JUMP JUMPDEST PUSH2 0x1C1 PUSH2 0x4C8 JUMP JUMPDEST PUSH1 0x1 DUP4 PUSH1 0x40 MLOAD PUSH2 0x1D1 SWAP2 SWAP1 PUSH2 0x7FC JUMP JUMPDEST SWAP1 DUP2 MSTORE PUSH1 0x20 ADD PUSH1 0x40 MLOAD DUP1 SWAP2 SUB SWAP1 KECCAK256 DUP3 DUP2 SLOAD DUP2 LT PUSH2 0x1F1 JUMPI PUSH2 0x1F0 PUSH2 0xA9E JUMP JUMPDEST JUMPDEST SWAP1 PUSH1 0x0 MSTORE PUSH1 0x20 PUSH1 0x0 KECCAK256 SWAP1 PUSH1 0x6 MUL ADD PUSH1 0x40 MLOAD DUP1 PUSH1 0xC0 ADD PUSH1 0x40 MSTORE SWAP1 DUP2 PUSH1 0x0 DUP3 ADD DUP1 SLOAD PUSH2 0x21A SWAP1 PUSH2 0x9AE JUMP JUMPDEST DUP1 PUSH1 0x1F ADD PUSH1 0x20 DUP1 SWAP2 DIV MUL PUSH1 0x20 ADD PUSH1 0x40 MLOAD SWAP1 DUP2 ADD PUSH1 0x40 MSTORE DUP1 SWAP3 SWAP2 SWAP1 DUP2 DUP2 MSTORE PUSH1 0x20 ADD DUP3 DUP1 SLOAD PUSH2 0x246 SWAP1 PUSH2 0x9AE JUMP JUMPDEST DUP1 ISZERO PUSH2 0x293 JUMPI DUP1 PUSH1 0x1F LT PUSH2 0x268 JUMPI PUSH2 0x100 DUP1 DUP4 SLOAD DIV MUL DUP4 MSTORE SWAP2 PUSH1 0x20 ADD SWAP2 PUSH2 0x293 JUMP JUMPDEST DUP3 ADD SWAP2 SWAP1 PUSH1 0x0 MSTORE PUSH1 0x20 PUSH1 0x0 KECCAK256 SWAP1 JUMPDEST DUP2 SLOAD DUP2 MSTORE SWAP1 PUSH1 0x1 ADD SWAP1 PUSH1 0x20 ADD DUP1 DUP4 GT PUSH2 0x276 JUMPI DUP3 SWAP1 SUB PUSH1 0x1F AND DUP3 ADD SWAP2 JUMPDEST POP POP POP POP POP DUP2 MSTORE PUSH1 0x20 ADD PUSH1 0x1 DUP3 ADD DUP1 SLOAD PUSH2 0x2AC SWAP1 PUSH2 0x9AE JUMP JUMPDEST DUP1 PUSH1 0x1F ADD PUSH1 0x20 DUP1 SWAP2 DIV MUL PUSH1 0x20 ADD PUSH1 0x40 MLOAD SWAP1 DUP2 ADD PUSH1 0x40 MSTORE DUP1 SWAP3 SWAP2 SWAP1 DUP2 DUP2 MSTORE PUSH1 0x20 ADD DUP3 DUP1 SLOAD PUSH2 0x2D8 SWAP1 PUSH2 0x9AE JUMP JUMPDEST DUP1 ISZERO PUSH2 0x325 JUMPI DUP1 PUSH1 0x1F LT PUSH2 0x2FA JUMPI PUSH2 0x100 DUP1 DUP4 SLOAD DIV MUL DUP4 MSTORE SWAP2 PUSH1 0x20 ADD SWAP2 PUSH2 0x325 JUMP JUMPDEST DUP3 ADD SWAP2 SWAP1 PUSH1 0x0 MSTORE PUSH1 0x20 PUSH1 0x0 KECCAK256 SWAP1 JUMPDEST DUP2 SLOAD DUP2 MSTORE SWAP1 PUSH1 0x1 ADD SWAP1 PUSH1 0x20 ADD DUP1 DUP4 GT PUSH2 0x308 JUMPI DUP3 SWAP1 SUB PUSH1 0x1F AND DUP3 ADD SWAP2 JUMPDEST POP POP POP POP POP DUP2 MSTORE PUSH1 0x20 ADD PUSH1 0x2 DUP3 ADD SLOAD DUP2 MSTORE PUSH1 0x20 ADD PUSH1 0x3 DUP3 ADD SLOAD DUP2 MSTORE PUSH1 0x20 ADD PUSH1 0x4 DUP3 ADD SLOAD DUP2 MSTORE PUSH1 0x20 ADD PUSH1 0x5 DUP3 ADD PUSH1 0x0 SWAP1 SLOAD SWAP1 PUSH2 0x100 EXP SWAP1 DIV PUSH1 0xFF AND PUSH1 0x4 DUP2 GT ISZERO PUSH2 0x371 JUMPI PUSH2 0x370 PUSH2 0xA40 JUMP JUMPDEST JUMPDEST PUSH1 0x4 DUP2 GT ISZERO PUSH2 0x383 JUMPI PUSH2 0x382 PUSH2 0xA40 JUMP JUMPDEST JUMPDEST DUP2 MSTORE POP POP SWAP1 POP SWAP3 SWAP2 POP POP JUMP JUMPDEST PUSH1 0x0 PUSH1 0x4 DUP3 GT ISZERO DUP1 ISZERO PUSH2 0x3A3 JUMPI POP PUSH1 0x0 DUP3 LT ISZERO JUMPDEST PUSH2 0x3E2 JUMPI PUSH1 0x40 MLOAD PUSH32 0x8C379A000000000000000000000000000000000000000000000000000000000 DUP2 MSTORE PUSH1 0x4 ADD PUSH2 0x3D9 SWAP1 PUSH2 0x813 JUMP JUMPDEST PUSH1 0x40 MLOAD DUP1 SWAP2 SUB SWAP1 REVERT JUMPDEST PUSH1 0x0 DUP3 EQ ISZERO PUSH2 0x3F4 JUMPI PUSH1 0x0 SWAP1 POP PUSH2 0x43D JUMP JUMPDEST PUSH1 0x1 DUP3 EQ ISZERO PUSH2 0x406 JUMPI PUSH1 0x1 SWAP1 POP PUSH2 0x43D JUMP JUMPDEST PUSH1 0x2 DUP3 EQ ISZERO PUSH2 0x418 JUMPI PUSH1 0x2 SWAP1 POP PUSH2 0x43D JUMP JUMPDEST PUSH1 0x3 DUP3 EQ ISZERO PUSH2 0x42A JUMPI PUSH1 0x3 SWAP1 POP PUSH2 0x43D JUMP JUMPDEST PUSH1 0x4 DUP3 EQ ISZERO PUSH2 0x43C JUMPI PUSH1 0x4 SWAP1 POP PUSH2 0x43D JUMP JUMPDEST JUMPDEST SWAP2 SWAP1 POP JUMP JUMPDEST DUP3 DUP1 SLOAD PUSH2 0x44E SWAP1 PUSH2 0x9AE JUMP JUMPDEST SWAP1 PUSH1 0x0 MSTORE PUSH1 0x20 PUSH1 0x0 KECCAK256 SWAP1 PUSH1 0x1F ADD PUSH1 0x20 SWAP1 DIV DUP2 ADD SWAP3 DUP3 PUSH2 0x470 JUMPI PUSH1 0x0 DUP6 SSTORE PUSH2 0x4B7 JUMP JUMPDEST DUP3 PUSH1 0x1F LT PUSH2 0x489 JUMPI DUP1 MLOAD PUSH1 0xFF NOT AND DUP4 DUP1 ADD OR DUP6 SSTORE PUSH2 0x4B7 JUMP JUMPDEST DUP3 DUP1 ADD PUSH1 0x1 ADD DUP6 SSTORE DUP3 ISZERO PUSH2 0x4B7 JUMPI SWAP2 DUP3 ADD JUMPDEST DUP3 DUP2 GT ISZERO PUSH2 0x4B6 JUMPI DUP3 MLOAD DUP3 SSTORE SWAP2 PUSH1 0x20 ADD SWAP2 SWAP1 PUSH1 0x1 ADD SWAP1 PUSH2 0x49B JUMP JUMPDEST JUMPDEST POP SWAP1 POP PUSH2 0x4C4 SWAP2 SWAP1 PUSH2 0x510 JUMP JUMPDEST POP SWAP1 JUMP JUMPDEST PUSH1 0x40 MLOAD DUP1 PUSH1 0xC0 ADD PUSH1 0x40 MSTORE DUP1 PUSH1 0x60 DUP2 MSTORE PUSH1 0x20 ADD PUSH1 0x60 DUP2 MSTORE PUSH1 0x20 ADD PUSH1 0x0 DUP2 MSTORE PUSH1 0x20 ADD PUSH1 0x0 DUP2 MSTORE PUSH1 0x20 ADD PUSH1 0x0 DUP2 MSTORE PUSH1 0x20 ADD PUSH1 0x0 PUSH1 0x4 DUP2 GT ISZERO PUSH2 0x50A JUMPI PUSH2 0x509 PUSH2 0xA40 JUMP JUMPDEST JUMPDEST DUP2 MSTORE POP SWAP1 JUMP JUMPDEST JUMPDEST DUP1 DUP3 GT ISZERO PUSH2 0x529 JUMPI PUSH1 0x0 DUP2 PUSH1 0x0 SWAP1 SSTORE POP PUSH1 0x1 ADD PUSH2 0x511 JUMP JUMPDEST POP SWAP1 JUMP JUMPDEST PUSH1 0x0 PUSH2 0x540 PUSH2 0x53B DUP5 PUSH2 0x87A JUMP JUMPDEST PUSH2 0x855 JUMP JUMPDEST SWAP1 POP DUP3 DUP2 MSTORE PUSH1 0x20 DUP2 ADD DUP5 DUP5 DUP5 ADD GT ISZERO PUSH2 0x55C JUMPI PUSH2 0x55B PUSH2 0xB01 JUMP JUMPDEST JUMPDEST PUSH2 0x567 DUP5 DUP3 DUP6 PUSH2 0x96C JUMP JUMPDEST POP SWAP4 SWAP3 POP POP POP JUMP JUMPDEST PUSH1 0x0 DUP3 PUSH1 0x1F DUP4 ADD SLT PUSH2 0x584 JUMPI PUSH2 0x583 PUSH2 0xAFC JUMP JUMPDEST JUMPDEST DUP2 CALLDATALOAD PUSH2 0x594 DUP5 DUP3 PUSH1 0x20 DUP7 ADD PUSH2 0x52D JUMP JUMPDEST SWAP2 POP POP SWAP3 SWAP2 POP POP JUMP JUMPDEST PUSH1 0x0 DUP2 CALLDATALOAD SWAP1 POP PUSH2 0x5AC DUP2 PUSH2 0xB5E JUMP JUMPDEST SWAP3 SWAP2 POP POP JUMP JUMPDEST PUSH1 0x0 DUP1 PUSH1 0x0 DUP1 PUSH1 0x0 PUSH1 0xA0 DUP7 DUP9 SUB SLT ISZERO PUSH2 0x5CE JUMPI PUSH2 0x5CD PUSH2 0xB0B JUMP JUMPDEST JUMPDEST PUSH1 0x0 DUP7 ADD CALLDATALOAD PUSH8 0xFFFFFFFFFFFFFFFF DUP2 GT ISZERO PUSH2 0x5EC JUMPI PUSH2 0x5EB PUSH2 0xB06 JUMP JUMPDEST JUMPDEST PUSH2 0x5F8 DUP9 DUP3 DUP10 ADD PUSH2 0x56F JUMP JUMPDEST SWAP6 POP POP PUSH1 0x20 DUP7 ADD CALLDATALOAD PUSH8 0xFFFFFFFFFFFFFFFF DUP2 GT ISZERO PUSH2 0x619 JUMPI PUSH2 0x618 PUSH2 0xB06 JUMP JUMPDEST JUMPDEST PUSH2 0x625 DUP9 DUP3 DUP10 ADD PUSH2 0x56F JUMP JUMPDEST SWAP5 POP POP PUSH1 0x40 PUSH2 0x636 DUP9 DUP3 DUP10 ADD PUSH2 0x59D JUMP JUMPDEST SWAP4 POP POP PUSH1 0x60 PUSH2 0x647 DUP9 DUP3 DUP10 ADD PUSH2 0x59D JUMP JUMPDEST SWAP3 POP POP PUSH1 0x80 PUSH2 0x658 DUP9 DUP3 DUP10 ADD PUSH2 0x59D JUMP JUMPDEST SWAP2 POP POP SWAP3 SWAP6 POP SWAP3 SWAP6 SWAP1 SWAP4 POP JUMP JUMPDEST PUSH1 0x0 DUP1 PUSH1 0x40 DUP4 DUP6 SUB SLT ISZERO PUSH2 0x67C JUMPI PUSH2 0x67B PUSH2 0xB0B JUMP JUMPDEST JUMPDEST PUSH1 0x0 DUP4 ADD CALLDATALOAD PUSH8 0xFFFFFFFFFFFFFFFF DUP2 GT ISZERO PUSH2 0x69A JUMPI PUSH2 0x699 PUSH2 0xB06 JUMP JUMPDEST JUMPDEST PUSH2 0x6A6 DUP6 DUP3 DUP7 ADD PUSH2 0x56F JUMP JUMPDEST SWAP3 POP POP PUSH1 0x20 PUSH2 0x6B7 DUP6 DUP3 DUP7 ADD PUSH2 0x59D JUMP JUMPDEST SWAP2 POP POP SWAP3 POP SWAP3 SWAP1 POP JUMP JUMPDEST PUSH2 0x6CA DUP2 PUSH2 0x95A JUMP JUMPDEST DUP3 MSTORE POP POP JUMP JUMPDEST PUSH1 0x0 PUSH2 0x6DB DUP3 PUSH2 0x8AB JUMP JUMPDEST PUSH2 0x6E5 DUP2 DUP6 PUSH2 0x8B6 JUMP JUMPDEST SWAP4 POP PUSH2 0x6F5 DUP2 DUP6 PUSH1 0x20 DUP7 ADD PUSH2 0x97B JUMP JUMPDEST PUSH2 0x6FE DUP2 PUSH2 0xB10 JUMP JUMPDEST DUP5 ADD SWAP2 POP POP SWAP3 SWAP2 POP POP JUMP JUMPDEST PUSH1 0x0 PUSH2 0x714 DUP3 PUSH2 0x8AB JUMP JUMPDEST PUSH2 0x71E DUP2 DUP6 PUSH2 0x8D8 JUMP JUMPDEST SWAP4 POP PUSH2 0x72E DUP2 DUP6 PUSH1 0x20 DUP7 ADD PUSH2 0x97B JUMP JUMPDEST DUP1 DUP5 ADD SWAP2 POP POP SWAP3 SWAP2 POP POP JUMP JUMPDEST PUSH1 0x0 PUSH2 0x747 PUSH1 0x16 DUP4 PUSH2 0x8C7 JUMP JUMPDEST SWAP2 POP PUSH2 0x752 DUP3 PUSH2 0xB21 JUMP JUMPDEST PUSH1 0x20 DUP3 ADD SWAP1 POP SWAP2 SWAP1 POP JUMP JUMPDEST PUSH1 0x0 PUSH1 0xC0 DUP4 ADD PUSH1 0x0 DUP4 ADD MLOAD DUP5 DUP3 SUB PUSH1 0x0 DUP7 ADD MSTORE PUSH2 0x77A DUP3 DUP3 PUSH2 0x6D0 JUMP JUMPDEST SWAP2 POP POP PUSH1 0x20 DUP4 ADD MLOAD DUP5 DUP3 SUB PUSH1 0x20 DUP7 ADD MSTORE PUSH2 0x794 DUP3 DUP3 PUSH2 0x6D0 JUMP JUMPDEST SWAP2 POP POP PUSH1 0x40 DUP4 ADD MLOAD PUSH2 0x7A9 PUSH1 0x40 DUP7 ADD DUP3 PUSH2 0x7ED JUMP JUMPDEST POP PUSH1 0x60 DUP4 ADD MLOAD PUSH2 0x7BC PUSH1 0x60 DUP7 ADD DUP3 PUSH2 0x7ED JUMP JUMPDEST POP PUSH1 0x80 DUP4 ADD MLOAD PUSH2 0x7CF PUSH1 0x80 DUP7 ADD DUP3 PUSH2 0x7ED JUMP JUMPDEST POP PUSH1 0xA0 DUP4 ADD MLOAD PUSH2 0x7E2 PUSH1 0xA0 DUP7 ADD DUP3 PUSH2 0x6C1 JUMP JUMPDEST POP DUP1 SWAP2 POP POP SWAP3 SWAP2 POP POP JUMP JUMPDEST PUSH2 0x7F6 DUP2 PUSH2 0x950 JUMP JUMPDEST DUP3 MSTORE POP POP JUMP JUMPDEST PUSH1 0x0 PUSH2 0x808 DUP3 DUP5 PUSH2 0x709 JUMP JUMPDEST SWAP2 POP DUP2 SWAP1 POP SWAP3 SWAP2 POP POP JUMP JUMPDEST PUSH1 0x0 PUSH1 0x20 DUP3 ADD SWAP1 POP DUP2 DUP2 SUB PUSH1 0x0 DUP4 ADD MSTORE PUSH2 0x82C DUP2 PUSH2 0x73A JUMP JUMPDEST SWAP1 POP SWAP2 SWAP1 POP JUMP JUMPDEST PUSH1 0x0 PUSH1 0x20 DUP3 ADD SWAP1 POP DUP2 DUP2 SUB PUSH1 0x0 DUP4 ADD MSTORE PUSH2 0x84D DUP2 DUP5 PUSH2 0x75D JUMP JUMPDEST SWAP1 POP SWAP3 SWAP2 POP POP JUMP JUMPDEST PUSH1 0x0 PUSH2 0x85F PUSH2 0x870 JUMP JUMPDEST SWAP1 POP PUSH2 0x86B DUP3 DUP3 PUSH2 0x9E0 JUMP JUMPDEST SWAP2 SWAP1 POP JUMP JUMPDEST PUSH1 0x0 PUSH1 0x40 MLOAD SWAP1 POP SWAP1 JUMP JUMPDEST PUSH1 0x0 PUSH8 0xFFFFFFFFFFFFFFFF DUP3 GT ISZERO PUSH2 0x895 JUMPI PUSH2 0x894 PUSH2 0xACD JUMP JUMPDEST JUMPDEST PUSH2 0x89E DUP3 PUSH2 0xB10 JUMP JUMPDEST SWAP1 POP PUSH1 0x20 DUP2 ADD SWAP1 POP SWAP2 SWAP1 POP JUMP JUMPDEST PUSH1 0x0 DUP2 MLOAD SWAP1 POP SWAP2 SWAP1 POP JUMP JUMPDEST PUSH1 0x0 DUP3 DUP3 MSTORE PUSH1 0x20 DUP3 ADD SWAP1 POP SWAP3 SWAP2 POP POP JUMP JUMPDEST PUSH1 0x0 DUP3 DUP3 MSTORE PUSH1 0x20 DUP3 ADD SWAP1 POP SWAP3 SWAP2 POP POP JUMP JUMPDEST PUSH1 0x0 DUP2 SWAP1 POP SWAP3 SWAP2 POP POP JUMP JUMPDEST PUSH1 0x0 PUSH2 0x8EE DUP3 PUSH2 0x950 JUMP JUMPDEST SWAP2 POP PUSH2 0x8F9 DUP4 PUSH2 0x950 JUMP JUMPDEST SWAP3 POP DUP2 PUSH32 0xFFFFFFFFFFFFFFFFFFFFFFFFFFFFFFFFFFFFFFFFFFFFFFFFFFFFFFFFFFFFFFFF DIV DUP4 GT DUP3 ISZERO ISZERO AND ISZERO PUSH2 0x932 JUMPI PUSH2 0x931 PUSH2 0xA11 JUMP JUMPDEST JUMPDEST DUP3 DUP3 MUL SWAP1 POP SWAP3 SWAP2 POP POP JUMP JUMPDEST PUSH1 0x0 DUP2 SWAP1 POP PUSH2 0x94B DUP3 PUSH2 0xB4A JUMP JUMPDEST SWAP2 SWAP1 POP JUMP JUMPDEST PUSH1 0x0 DUP2 SWAP1 POP SWAP2 SWAP1 POP JUMP JUMPDEST PUSH1 0x0 PUSH2 0x965 DUP3 PUSH2 0x93D JUMP JUMPDEST SWAP1 POP SWAP2 SWAP1 POP JUMP JUMPDEST DUP3 DUP2 DUP4 CALLDATACOPY PUSH1 0x0 DUP4 DUP4 ADD MSTORE POP POP POP JUMP JUMPDEST PUSH1 0x0 JUMPDEST DUP4 DUP2 LT ISZERO PUSH2 0x999 JUMPI DUP1 DUP3 ADD MLOAD DUP2 DUP5 ADD MSTORE PUSH1 0x20 DUP2 ADD SWAP1 POP PUSH2 0x97E JUMP JUMPDEST DUP4 DUP2 GT ISZERO PUSH2 0x9A8 JUMPI PUSH1 0x0 DUP5 DUP5 ADD MSTORE JUMPDEST POP POP POP POP JUMP JUMPDEST PUSH1 0x0 PUSH1 0x2 DUP3 DIV SWAP1 POP PUSH1 0x1 DUP3 AND DUP1 PUSH2 0x9C6 JUMPI PUSH1 0x7F DUP3 AND SWAP2 POP JUMPDEST PUSH1 0x20 DUP3 LT DUP2 EQ ISZERO PUSH2 0x9DA JUMPI PUSH2 0x9D9 PUSH2 0xA6F JUMP JUMPDEST JUMPDEST POP SWAP2 SWAP1 POP JUMP JUMPDEST PUSH2 0x9E9 DUP3 PUSH2 0xB10 JUMP JUMPDEST DUP2 ADD DUP2 DUP2 LT PUSH8 0xFFFFFFFFFFFFFFFF DUP3 GT OR ISZERO PUSH2 0xA08 JUMPI PUSH2 0xA07 PUSH2 0xACD JUMP JUMPDEST JUMPDEST DUP1 PUSH1 0x40 MSTORE POP POP POP JUMP JUMPDEST PUSH32 0x4E487B7100000000000000000000000000000000000000000000000000000000 PUSH1 0x0 MSTORE PUSH1 0x11 PUSH1 0x4 MSTORE PUSH1 0x24 PUSH1 0x0 REVERT JUMPDEST PUSH32 0x4E487B7100000000000000000000000000000000000000000000000000000000 PUSH1 0x0 MSTORE PUSH1 0x21 PUSH1 0x4 MSTORE PUSH1 0x24 PUSH1 0x0 REVERT JUMPDEST PUSH32 0x4E487B7100000000000000000000000000000000000000000000000000000000 PUSH1 0x0 MSTORE PUSH1 0x22 PUSH1 0x4 MSTORE PUSH1 0x24 PUSH1 0x0 REVERT JUMPDEST PUSH32 0x4E487B7100000000000000000000000000000000000000000000000000000000 PUSH1 0x0 MSTORE PUSH1 0x32 PUSH1 0x4 MSTORE PUSH1 0x24 PUSH1 0x0 REVERT JUMPDEST PUSH32 0x4E487B7100000000000000000000000000000000000000000000000000000000 PUSH1 0x0 MSTORE PUSH1 0x41 PUSH1 0x4 MSTORE PUSH1 0x24 PUSH1 0x0 REVERT JUMPDEST PUSH1 0x0 DUP1 REVERT JUMPDEST PUSH1 0x0 DUP1 REVERT JUMPDEST PUSH1 0x0 DUP1 REVERT JUMPDEST PUSH1 0x0 DUP1 REVERT JUMPDEST PUSH1 0x0 PUSH1 0x1F NOT PUSH1 0x1F DUP4 ADD AND SWAP1 POP SWAP2 SWAP1 POP JUMP JUMPDEST PUSH32 0x496E76616C696420696E766F6963652073746174757300000000000000000000 PUSH1 0x0 DUP3 ADD MSTORE POP JUMP JUMPDEST PUSH1 0x5 DUP2 LT PUSH2 0xB5B JUMPI PUSH2 0xB5A PUSH2 0xA40 JUMP JUMPDEST JUMPDEST POP JUMP JUMPDEST PUSH2 0xB67 DUP2 PUSH2 0x950 JUMP JUMPDEST DUP2 EQ PUSH2 0xB72 JUMPI PUSH1 0x0 DUP1 REVERT JUMPDEST POP JUMP INVALID LOG2 PUSH5 0x6970667358 0x22 SLT KECCAK256 PUSH4 0xA526299D GASPRICE 0x4E 0xF 0xE9 CREATE 0xBE PUSH18 0xF2130AB8B4D443AE105A013365227A53702A 0xD2 BLOCKHASH PUSH5 0x736F6C6343 STOP ADDMOD MOD STOP CALLER "
		},
		"gasEstimates": {
			"creation": {
				"codeDepositCost": "597400",
				"executionCost": "632",
				"totalCost": "598032"
			},
			"external": {
				"createInvoice(string,string,uint256,uint256,uint256)": "infinite",
				"viewInvoice(string,uint256)": "infinite"
			},
			"internal": {
				"setInvoiceStatus(uint256)": "infinite"
			}
		},
		"methodIdentifiers": {
			"createInvoice(string,string,uint256,uint256,uint256)": "12b115cf",
			"viewInvoice(string,uint256)": "d946e935"
		}
	},
	"abi": [
		{
			"inputs": [
				{
					"internalType": "string",
					"name": "_buyersPAN",
					"type": "string"
				},
				{
					"internalType": "string",
					"name": "_sellersPAN",
					"type": "string"
				},
				{
					"internalType": "uint256",
					"name": "_invoiceAmount",
					"type": "uint256"
				},
				{
					"internalType": "uint256",
					"name": "_invoiceID",
					"type": "uint256"
				},
				{
					"internalType": "uint256",
					"name": "_invoiceStatusNo",
					"type": "uint256"
				}
			],
			"name": "createInvoice",
			"outputs": [],
			"stateMutability": "nonpayable",
			"type": "function"
		},
		{
			"inputs": [
				{
					"internalType": "string",
					"name": "_buyersPAN",
					"type": "string"
				},
				{
					"internalType": "uint256",
					"name": "_invoiceno",
					"type": "uint256"
				}
			],
			"name": "viewInvoice",
			"outputs": [
				{
					"components": [
						{
							"internalType": "string",
							"name": "buyerPAN",
							"type": "string"
						},
						{
							"internalType": "string",
							"name": "sellerPAN",
							"type": "string"
						},
						{
							"internalType": "uint256",
							"name": "invoiceAmount",
							"type": "uint256"
						},
						{
							"internalType": "uint256",
							"name": "invoiceDate",
							"type": "uint256"
						},
						{
							"internalType": "uint256",
							"name": "invoiceID",
							"type": "uint256"
						},
						{
							"internalType": "enum decentralizedInvoicing.paymentStatus",
							"name": "invoiceStatus",
							"type": "uint8"
						}
					],
					"internalType": "struct decentralizedInvoicing.invoiceData",
					"name": "ivd",
					"type": "tuple"
				}
			],
			"stateMutability": "view",
			"type": "function"
		}
	]
}